:100000000C9434000C9449000C9449000C94490061
:100010000C9449000C9449000C9449000C9449003C
:100020000C9449000C9449000C9449000C9449002C
:100030000C9449000C9449000C9449000C9449001C
:100040000C9449000C9449000C9449000C9449000C
:100050000C9449000C9449000C9449000C944900FC
:100060000C9449000C94490011241FBECFEFD8E036
:10007000DEBFCDBF11E0A0E0B1E0E4EAF2E002C0F3
:1000800005900D92AA30B107D9F70E9425010C9472
:1000900050010C9400001092C50083E38093C400CB
:1000A0001092C00088E18093C10086E08093C20076
:1000B00008959091C00095FFFCCF8093C6000895ED
:1000C000CF93DF93C82FD92F02C00E945900899186
:1000D0008823D9F7DF91CF9108950F931F93CF9382
:1000E000DF93C1E0D0E001E014E080E091E00E9405
:1000F000600008B98FEF90E7A2E081509040A040E7
:10010000E1F700C0000018B88FEF98EFA5E181502B
:100110009040A040E1F700C00000C130D10539F4A3
:1001200082E091E00E946000C2E0D0E01DC0C230D9
:10013000D10539F484E091E00E946000C3E0D0E092
:1001400013C0C330D10539F486E091E00E9460000D
:10015000C4E0D0E009C0C430D10531F488E091E0BA
:100160000E946000C1E0D0E018B98FEF90E7A2E0F4
:1001700081509040A040E1F700C0000018B88FEF18
:1001800092E6AEE281509040A040E1F700C000004E
:10019000ACCF0F931F93CF93DF93C1E0D0E001E08A
:1001A00014E080E091E00E94600008B98FEF90E7D2
:1001B000A2E081509040A040E1F700C0000018B8D4
:1001C0008FEF98EFA5E181509040A040E1F700C08B
:1001D0000000C130D10539F482E091E00E94600056
:1001E000C2E0D0E01DC0C230D10539F484E091E016
:1001F0000E946000C3E0D0E013C0C330D10539F4E1
:1002000086E091E00E946000C4E0D0E009C0C43004
:10021000D10531F488E091E00E946000C1E0D0E0B7
:1002200018B98FEF90E7A2E081509040A040E1F72D
:1002300000C0000018B88FEF9CECA6E481509040FD
:10024000A040E1F700C00000ACCF8FEF99E6A8E135
:1002500081509040A040E1F700C000000E944B0098
:100260001AB88FEF87B918B84A990CC08FEF99E682
:10027000A8E181509040A040E1F700C000000E943A
:10028000C900F2CF4B99F0CF8FEF99E6A8E18150EA
:100290009040A040E1F700C000000E946D00E4CF54
:0402A000F894FFCF00
:0A02A4003500310032003300340051
:00000001FF
